:020000040000fa
:080000000002040000000000f2
:020000040000fa
:10040000cf4721000e7f22000e018800000000006f
:100410000c000700e0a22f000100200011000700df
:10042000000020000000e000020032000000020096
:100430000000000086dc0200000000000040da003e
:100440000000fe004440a900602121000000e000ff
:100450000300320000002000a00188004440a800f2
:100460000000060091018800800078000000eb0089
:1004700015003700e280400032a0b4009101ba00bc
:10048000e280400032a0b4009102ba00e280400055
:1004900032a0b4000002eb00472bde00f507b200eb
:1004a000602ce10004003a000059eb008301e900f0
:1004b000fdff3e00040037006128e100010032002a
:1004c0000082eb00040007001101ba000200e00006
:1004d000e8ff3a00000006003159ba008301e90044
:1004e0000c0032002159ba008301e90008003200f3
:1004f0000400e00003003a00e280400032a0b400b3
:10050000f5ff370011d9ba008301e900faff3a007c
:100510008100e800e180400032a0b4000000060045
:100520000040da000000fe006900e1000400350030
:100530006d00e100030034000002b1000100320050
:1005400000000500100005001004b1000700350090
:100550009001b100040034007000b10003003500c8
:100560009001b10001003c001000050000000500f2
:10057000800078001106b100030035009101b10040
:1005800001003c000050a10000000600020ab90072
:10059000001bb9000200b800810042008100430046
:1005a00000000600889fbe008a9fbe0001057800fb
:1005b0000100e0000400350008003c000000e000fd
:1005c000200032000500370060001000e0801800b5
:1005d00002003b0001f02c001a0037000004be00ae
:1005e0006011b8006b0920000982cf0002003900b9
:1005f0000882cf000441b000694252000e00320070
:1006000008003b0082817100610164008904d1000f
:100610000884d3008b05e8000442e800f9ff3a00a3
:10062000050037000804440089844c008b05e9006c
:100630000442e900fbff3a00720207000af0a7003b
:1006400001f0a0004f05be004f04be0000000600f0
:1006500003f0a200889fbe008a9fbe008c1f780016
:100660008e020700950233006450e1004f00320013
:100670006420e1005200320003826c0007003b005e
:100680000905d0000306d000820f54000c065d005f
:100690000200390002003200890178000306780068
:1006a0008582550004003d000003fd008103fd002c
:1006b0008502ea008b854200840f720002003b0035
:1006c00060001000e08018006011b8000005eb0029
:1006d0007a28e1000a00390006007800c75ddd00d5
:1006e000f707b200878075002d0037008281710006
:1006f0000a017800610560008180d1000080d3008c
:100700008502e900f9ff3b000604400087844800a9
:1007100002003b0060041400e0841c000988a30070
:10072000070032008a8171008281710061016400da
:100730008904d1000884d3008b05e8001700370036
:100740000978a30013003a000b00e0001300340006
:100750008b05e9000804440089844c000a447400b5
:100760000978a3000d003a000b00e00007003400f8
:100770008b05e9000804440089844c0001003a001c
:100780000b0020000978a300f7ff32000001eb0006
:1007900002003700828171000a0178001902070007
:1007a0000cf0a70001f0a0004d0237006420e1002a
:1007b00002003a00838f6c004d0233000801be0036
:1007c0000200be0046023700889fbe008a9fbe001e
:1007d0008c1f7800310207003802330003866c005a
:1007e0006450e1002e0032006420e100330032004a
:1007f0006150e1002f0032006120e1003100320041
:1008000085855500eb07b000090020000804200092
:10081000050037000804440089844c000a003100b8
:100820000603430087834b000001530081815b0076
:10083000f8ff33000203be000800a00008044400d3
:1008400089844c00f6ff3900c639dd00830173004e
:1008500001003200130020008904d1000884d30075
:100860000998a300050032000800a7000300a000bb
:100870008904d1000884d3008b05e8008904d100e5
:100880000884d3000001eb000281d200dd010700e3
:1008900001f0a1000cf0a70001f0a0001002370049
:1008a0006420e100120232000801be000200be0016
:1008b000f7ff37006120e1000d0232006000b80050
:1008c000f3ff37000000200001f82700f0ff370099
:1008d000839f68000100e00002003d0060001000fe
:1008e000e08018000300e00002003d0060011100fc
:1008f000e0811900050007004f00e00002003b0006
:1009000060001000e0801800000006006022b800bf
:10091000060220000000d0008180d2000482d200b4
:100920008582d2000000a0000202520083825a0099
:10093000030031000202420083824a000000a1004d
:100940000603e900f3ff3a0000000600040020005f
:10095000ea013700889fbe008a9fbe008c1f780086
:10096000ce010700d501330003866c006450e1001e
:10097000240032006420e100270032006150e100d1
:10098000220032006120e100210032008b8542000c
:10099000eb07b1000134b800003ab8000804420087
:1009a00089844a00013ab8000030b80088804000cd
:1009b00009014a0004003300000040008180480023
:1009c000020149008b05e900c909dd0083017000bf
:1009d0000100320013002000c814de004814dd00be
:1009e0004709de001200b200c808de00088470006b
:1009f0008401070001f0a1000cf0a70001f0a000a5
:100a0000b70137006120e100b90132000801be00e2
:100a10000200be00f7ff37006150e100fcff3a0022
:100a2000b30137000001be00cf0107000470a7002a
:100a300003f0a10003f8a30013003a006509b10018
:100a400010003200090035006928e100020035007d
:100a500001002800000005000000400081804800df
:100a60008502e900fcff3a0000000600f88f420012
:100a7000050035008100d1000080d3008502e80028
:100a8000fcff3a00000006008000eb0000000500bb
:100a90000001be00b40107000470a70003f0a1002c
:100aa0006509b100160032000d0035006828e1002c
:100ab00006003500f0ff2f00f1ff27000300e000e3
:100ac00013003b000100280000000500000040006a
:100ad000818048008502e900fcff3a0008003700e9
:100ae000f88f420002003c008000eb00000005008f
:100af0008100d1000080d3008502e800fcff3a00ad
:100b00000300e00002003b0060001000e0801800dd
:100b1000000006007dff07000400be000000060084
:100b2000889fbe008a9fbe008c1f78000205be0011
:100b30000004be000006eb00e00f5000e08f5800fc
:100b4000e00f5900e08f590007003d006000b80039
:100b50006011b80008045000898458000a05590043
:100b60008b8559001c002000e00f5200e08f5a00d6
:100b7000e00f5b00e08f5b0002003d000f0007000c
:100b80000c00a2000800be000a01be008b01070095
:100b90000203be000002be000c00e00001003200b3
:100ba000060007000400be000601be004f067800e4
:100bb0004f05be004f04be00000006006000b800f4
:100bc0006011b800040250008582580006035900e5
:100bd0008783590000000600881f78000004780011
:100be0005001be004000be00040040008580480067
:100bf0000601490087814900009cbe000294be00a6
:100c00000400e1000588e1000690e1000798e1009a
:100c100002003100680044001008e8004f0478002a
:100c200000000600f4874700889fbe008a9fbe0030
:100c30008c9fbe008e1f78000205be000004be001f
:100c4000d4b79f00e5b79f00f6b79f0087bf9f000e
:100c50000000eb00c0b79f00b0b79f00a0b79f0097
:100c600090b79f0080b79f000d042000bfb0970091
:100c70004fb09700000140000000e0000f003d0071
:100c80004f08de0000007100c0b79f009e00070003
:100c900001003d0012002000a100070001003d00fe
:100ca00012002000a6000700b1000700b6000700f0
:100cb0000f004000c8ff0700220037004f08de0089
:100cc00000067100ccb79f008f00070001003d00b7
:100cd000120020009200070001003d0012002000d9
:100ce00097000700a20007000fb297009fb297007d
:100cf0002fb39700bfb39700a90007000000520070
:100d000081805a0002015b0083815b0080b79f00f5
:100d100091b79f00a2b79f00b3b79f000007eb00f9
:100d20009f0007000020e10001a8e10002b0e100ff
:100d300003b8e100010031001e0020000e00560043
:100d4000c0b79f004fb297000400e00007003500d5
:100d500010002000010020006011b800080470009d
:100d6000898470000a0571008b8571008d06e90089
:100d7000beff3a000400e00003003d0082000700cf
:100d80000f00400094ff07004fa897000000e0000c
:100d900004003a000fb497009fb497002fb5970056
:100da000bfb59700940007004f0778004f06be00bc
:100db0004f05be004f04be004f01b1000000060009
:100dc000881f780018002000881f780095ff070012
:100dd0008f87e9004f04780000000600801feb00b9
:100de00090ff07008f87e90000000600889fbe0083
:100df0008a9fbe008c1f78006e00070007003d0030
:100e000073000700e00f5b00e08f5b0007003d0010
:100e1000320007000006eb00040037003400070032
:100e200002003d002a0007001c002000720007009d
:100e3000e3ff07000203be000002be000c00e0005a
:100e400001003200220007000400be000601be00bf
:100e50004f0678004f05be004f04be00000006009c
:100e6000889fbe008a9fbe008c1f7800510007003b
:100e700005003d0056000700e00f5b00e08f5b00bf
:100e800006003d00040037001900070003003d0084
:100e90006000b8006011b80010000700560007009d
:100ea000ceff07000203be000002be000c00e000ff
:100eb00001003200060007000400be000601be006b
:100ec0004f0678004f05be004f04be00000006002c
:100ed0006000b8006011b800000037000402500044
:100ee00085825800060359008783590000000600d8
:100ef0000006eb00e00f5200e08f5a00e00f5b00ad
:100f0000e08f5b00000006000180400090b79f006a
:100f10000001eb008fb097000100e0000000060028
:100f20000200700090b79f000180400080b79f00d2
:100f30000001eb00ffa897000100e00000000600a0
:100f40000200700080b79f00018040006faa9700e8
:100f5000cf20de0001007000f0af9f0004024200cd
:100f6000250007004f18de00000272000000060096
:100f7000e4af9f000804440089844c000a054d003a
:100f80008b854d00000006003fb29700cfb297005e
:100f90005fb39700efb3970000fe2f00000006003c
:100fa0003fb09700cfb097005fb19700efb19700c7
:100fb000000006000205be000004be00e00f500065
:100fc000e08f5800e00f5900e08f59000000060044
:100fd0006000b8006011b80008045000898458000f
:100fe0000a0559008b8559001c002000e00f5200b3
:100ff000e08f5a00000006000800be000a01be0093
:101000000000060081002000618055000b003d00bb
:101010000b00200061fe2f000100e1001d003400e4
:1010200082817100610164008904d1000884d300c9
:101030000000e800faff3a0071002000610064003f
:1010400003007000020060000900320061044400e7
:10105000e0844c000988a500050032008b05e800fb
:101060006808e10002003a008904d1000884d30036
:10107000f20f20000258e10005003d00c75ddd00d1
:10108000f907b200898075000800780000000600aa
:101090000bf827008b007800000005000004be005c
:1010a000310007000003be000405be000200be00c0
:1010b0002d000700844f7500000006000200be00ee
:1010c0006450e100050036006420e10002003600b3
:1010d0000968a30001003a000800be000160a000fa
:1010e0004f0678004f05be004f04be00000006000a
:1010f000f0ff2f00f1ff2700f9ff3700889fbe00a7
:101100008a9fbe00841f7800e4ff07004f0078002c
:1011100011003300f0ff2f00838f6c0006003b00ae
:10112000040565000a00a7000800370009f0a600c2
:101130001000200008003700820f5400838f5c00ed
:10114000030039001000200001003e0000002000d4
:1011500009f0a7000000ea004f05be004f04be00e2
:101160000000e00000000600c70ade00f107b20040
:10117000f50fb20008003200e1cf42000200320059
:101180000170a00024000500810f700001003200f2
:101190000408050044000500810f700002003a00b9
:1011a000140005008502e9000000400081c04800ed
:1011b000fcff3b000170a00024000500889fbe00da
:1011c0008a9fbe008c9fbe000404b8000506b800cc
:1011d0008904460060854e000606b8000a054600f0
:1011e000e0854e000706b8008b054600040eb800e7
:1011f000890446000a854e00e0854d00050eb800c2
:101200000a0546008b854e00060eb8008b05460089
:101210000416b8000a0546008b854e000516b80076
:101220008b054600041eb8008b0546000800be0072
:101230000a01be004f06be004f05be004f04be00af
:10124000000006008001780000017800314078003d
:10125000005978000004e000fcff3a000300780029
:101260000000060010417800b141510003003a002f
:101270000000e8000204e000faff3a000300fb006f
:1012800000000600810178000002eb000b0037002f
:10129000e44078000104e000030032000402e800aa
:1012a00093cf5000040032008180fb001380fb00cc
:1012b00000805000000006008301e800820f520009
:1012c000f3ff3a00000005008001eb000200370048
:1012d00061f079008301e800828f5100fcff3a0041
:1012e000000006000400fa00e0bf9f00e481570000
:1012f000812978000002eb000f0037006fb89700db
:10130000904078007fb89700104078000402e80011
:1013100080cf5000040032008180fb000080fb0081
:1013200000805000070037006fb897000000e80009
:10133000e0bf9f009309e800820f5200efff3a00e0
:101340000000eb000080fa0000000600800078003a
:101350003004e000feff3a00010050000000e90008
:1013600000000600800178000001780001003700cd
:101370000201e8001204e000fdff3a00314078006d
:10138000005978000004e000fcff3a0003007800f8
:10139000000006008002780080017800010037001c
:1013a0008301e8001304e000fdff3a000002eb00b7
:1013b000820f52000600320064c078008059780025
:1013c0000402e8000004e00002003200f8ff3700e9
:1013d0008049eb000500780000000600e487470024
:1013e000889fbe008a9fbe008c9fbe008e1f780023
:1013f0000005780001077800820578000000eb0006
:10140000d0a388000100e000010032008a087800c3
:101410000a047800b84478000900fb0042fc070089
:101420000000e0000200320008057800f8ff3700f5
:10143000d0c2b30080cf540005003a009844780031
:101440000a84e80010c0b30090f79f00070037003f
:101450000041eb0092f79f00b0c2b30080cf540070
:1014600002003a00984478000a84e80000c3b30000
:1014700080cf540017003a0008057800ba4478007d
:101480000b00e00002003200f08f550009003a0026
:1014900080c7b30080cf54000300320080c5b30082
:1014a00080cf540007003a009a4478000885e8008d
:1014b0000b0120006066b8000040eb0080f79f0041
:1014c000100037000b00e000faff3a008b0020000c
:1014d000f8ff37000b00e00003003a000805780031
:1014e000ab002000f3ff370008057800f1ff37005c
:1014f00020022000d0a388000205780012c0b300ab
:10150000240037000904fb00080078000efc0700e7
:101510000000e000050032000800780014fc07001d
:1015200091ccb300014440000500370001fd2f00bd
:1015300001004400e90f500015003e0001c44400c2
:101540000800fb008b0f500011003d006159b900ed
:101550000c00be000dfc07000801fb00cf91de006f
:1015600000004100818049000a01e800800f560018
:10157000818f5e00deff3e009a447800020578000d
:1015800012c0b30082f79f000006be00ddff3700e7
:101590000041eb000e00e000030032000ff0970066
:1015a0000004e00004003a009e00780000c3b3008d
:1015b000914f100001003a000a0fe900e14f51007d
:1015c00003003a000086eb008086eb000500370040
:1015d0001ff197000204e0000200320060061600ce
:1015e000e0861e000c00be004f0778004f06be00cc
:1015f0004f05be004f04be004f00b10000000600c2
:10160000889fbe008a9fbe008c1f780080057800ee
:1016100001057800020678000000eb00d0a38800e6
:101620000b047800010037000804e80098447800b3
:101630000900fb00bcfb07000000e000faff3a00d5
:10164000d0c2b30080cf54000500320000c0e900d2
:1016500080cf54000200320080447800010037003f
:101660000804e8000c0178008a007800080078007f
:101670005aff07000001be009a0f540001003a0013
:101680000b0d78009a8f550003003a00e00f5100cf
:10169000e08f59000f003a00b0c2b30080cf540071
:1016a00004003a00e00f5100e08f590015003d00a2
:1016b00008003700d0c2b30080cf540011003a00b8
:1016c0000000200001002800800f5100818f590088
:1016d0000a00360020022000d0a38800020020006b
:1016e000030028006b40400080cf5400050032000a
:1016f000f2ff2f00f3ff2700020037006001110006
:10170000e08119000200be004f0678004f05be00c0
:101710004f04be00000006008001eb00020037000d
:10172000817178008301e800828f5100fcff3a004c
:1017300000000600889fbe008a9fbe0080007800df
:1017400000c2b300010037008900780081047800ee
:1017500039447800804f5400fbff3200e94f5400b9
:10176000f9ff3200d0c2b300804f540004003a00a9
:10177000194478008184e8001ac0b30006003700dd
:101780000045eb00b0c2b300804f540002003a00a5
:10179000194478008184e8006022b8000a0037000c
:1017a000a2002000030020000400be0077fb070019
:1017b0000b4144000281fb000300200000024100b5
:1017c00081824900394478000880fb000bfd2f001e
:1017d0000b004000e90f5000f1ff36000a04e00062
:1017e0000200320060021200e0821a000400be0013
:0c17f0004f05be004f04be0000000600c4
:020000040000fa
:0200000401f009
:04000c00fbff0000f6
:020000040000fa
:0200000401f009
:04001000fdff0000f0
:020000040000fa
:0200000401f009
:040014007fff00006a
:020000040000fa
:10000800900200009002000072dc00007cdc00001e
:100018009002000090020000900200009002000090
:10002800900200003cd400009002000098ff0000fd
:100038009002000090020000900200009002000070
:100048009002000090020000900200008cf0000076
:100058009002000090020000900200009002000050
:100068009002000090020000900200009002000040
:100078009002000090020000900200009002000030
:10008800900200009002000090020000eee30000e1
:10009800c8e40000900200003cf300009002000059
:1000a8009002000090020000900200009002000000
:1000b80090020000900200009002000090020000f0
:1000c80090020000900200009002000090020000e0
:1000d80090020000900200009002000090020000d0
:1000e80090020000900200009002000090020000c0
:1000f80090020000900200009002000090020000b0
:10010800900200009002000090020000900200009f
:10011800900200009002000090020000900200008f
:10012800900200009002000090020000900200007f
:10013800900200009002000090020000900200006f
:10014800900200009002000090020000900200005f
:10015800900200009002000090020000900200004f
:10016800900200009002000090020000900200003f
:10017800900200009002000090020000900200002f
:10018800900200009002000090020000900200001f
:10019800900200009002000090020000900200000f
:1001a80090020000900200009002000090020000ff
:1001b80090020000900200009002000090020000ef
:1001c80090020000900200009002000090020000df
:1001d80090020000900200009002000090020000cf
:1001e80090020000900200009002000090020000bf
:0801f8009002000090020000db
:020000040000fa
:10020800900200009002000072dc00007cdc00001c
:10021800900200009002000090020000900200008e
:10022800900200003cd400009002000098ff0000fb
:10023800900200009002000090020000900200006e
:100248009002000090020000900200008cf0000074
:10025800900200009002000090020000900200004e
:10026800900200009002000090020000900200003e
:10027800900200009002000090020000900200002e
:10028800900200009002000090020000eee30000df
:10029800c8e40000900200003cf300009002000057
:1002a80090020000900200009002000090020000fe
:1002b80090020000900200009002000090020000ee
:1002c80090020000900200009002000090020000de
:1002d80090020000900200009002000090020000ce
:1002e80090020000900200009002000090020000be
:1002f80090020000900200009002000090020000ae
:10030800900200009002000090020000900200009d
:10031800900200009002000090020000900200008d
:10032800900200009002000090020000900200007d
:10033800900200009002000090020000900200006d
:10034800900200009002000090020000900200005d
:10035800900200009002000090020000900200004d
:10036800900200009002000090020000900200003d
:10037800900200009002000090020000900200002d
:10038800900200009002000090020000900200001d
:10039800900200009002000090020000900200000d
:1003a80090020000900200009002000090020000fd
:1003b80090020000900200009002000090020000ed
:1003c80090020000900200009002000090020000dd
:1003d80090020000900200009002000090020000cd
:1003e80090020000900200009002000090020000bd
:0803f8009002000090020000d9
:020000040000fa
:1017fc006865000061640000657200002e690000dd
:10180c006e630000006600006f6f000074650000de
:10181c00722e0000696e000063000000214400007d
:10182c0045460000000d00000a000000747800001e
:10183c0074000000687400006d0000006874000003
:10184c006d6c000000630000676900000078000008
:10185c006d6c0000006300007373000000670000f3
:10186c0069660000007000006e670000006a0000ee
:10187c0070670000006300006c61000000770000de
:10188c006176000000000000000000000000000075
:10189c001c8c0000208c0000248c0000298c000083
:1018ac002d8c0000318c0000358c0000398c000030
:1018bc003d8c0000418c0000458c0000498c0000e0
:1018cc0074650000787400002f7000006c610000db
:1018dc00696e00000074000065780000742f000031
:1018ec00687400006d6c00000074000065780000e6
:1018fc00742f0000786d00006c000000746500000f
:10190c00787400002f6300007373000000690000fe
:10191c006d610000676500002f67000069660000bc
:10192c00006900006d610000676500002f70000009
:10193c006e670000006900006d61000067650000c3
:10194c002f6a0000706500006700000061700000e5
:10195c00706c00006963000061740000696f000026
:10196c006e2f00006a610000766100002d76000089
:10197c006d00000061750000646900006f2f0000ad
:10198c00782d0000776100007665000000000000f3
:10199c00668c0000718c0000718c0000718c000052
:1019ac007b8c0000848c00008d8c0000978c0000d8
:1019bc00a18c0000ac8c0000c08c0000cd8c000011
:1019cc0048540000545000002f3100002e3100000c
:1019dc002032000030300000204f00004b0d000082
:1019ec000a4300006f6e00006e6500006374000017
:1019fc00696f00006e3a0000206300006c6f0000fd
:101a0c00736500000d0a00000048000054540000eb
:101a1c00502f0000312e0000312000003430000027
:101a2c00302000004261000064200000526500007c
:101a3c007175000065730000740d00000a4300000e
:101a4c006f6e00006e65000063740000696f00002b
:101a5c006e3a0000206300006c6f0000736500009c
:101a6c000d0a00000d0a0000343000003020000088
:101a7c004261000064200000526500007175000096
:101a8c0065730000743a000020630000616e000072
:101a9c002774000020680000616e0000646c000078
:101aac0065200000436f00006e740000656e00003e
:101abc00742d00004c6500006e6700007468000017
:101acc000d0a00000048000054540000502f000084
:101adc00312e000031200000343000003120000095
:101aec00556e000061750000746800006f72000094
:101afc00697a0000656400000d0a00005757000069
:101b0c00572d00004175000074680000656e0000e0
:101b1c007469000063610000746500003a200000e5
:101b2c0042610000736900006320000072650000d0
:101b3c00616c00006d3d000022500000726f0000cf
:101b4c00746500006374000065640000220d0000e1
:101b5c000a4300006f6e00006e65000063740000a5
:101b6c00696f00006e3a0000206300006c6f00008b
:101b7c00736500000d0a00000d0a000034300000ef
:101b8c0031200000556e0000617500007468000083
:101b9c006f720000697a0000656400003a20000052
:101bac005061000073730000776f000072640000d6
:101bbc0020720000657100007569000072650000fc
:101bcc00640d00000a00000048540000545000004e
:101bdc002f3100002e310000203400003034000082
:101bec00204e00006f740000206600006f7500002e
:101bfc006e6400000d0a0000436f00006e6e000062
:101c0c0065630000746900006f6e00003a200000ec
:101c1c00636c00006f730000650d00000a43000048
:101c2c006f6e0000746500006e7400002d5400008f
:101c3c0079700000653a000020740000657800009f
:101c4c00742f0000687400006d6c00000d0a000019
:101c5c000d0a000034300000343a00002046000029
:101c6c00696c0000652000006e6f0000742000009d
:101c7c00666f0000756e0000643c0000627200002c
:101c8c003e55000073650000203c00006120000000
:101c9c0068720000656600003d2200002f75000090
:101cac00706c00006f610000642200003e4d00006b
:101cbc005046000053200000557000006c6f00006f
:101ccc00616400003c2f0000613e000020740000a5
:101cdc006f200000707200006f67000072610000de
:101cec006d2000007765000062200000706100002c
:101cfc0067650000730d00000a00000048540000e6
:101d0c00545000002f3100002e3100002034000010
:101d1c003134000020520000657100007565000030
:101d2c00737400002d55000052490000205400002f
:101d3c006f6f0000204c00006f6e0000670d0000fc
:101d4c000a4300006f6e00006e65000063740000b3
:101d5c00696f00006e3a0000206300006c6f000099
:101d6c00736500000d0a00000d0a000034310000fc
:101d7c00342000005265000071750000657300008e
:101d8c00742d00005552000049200000546f0000d3
:101d9c006f2000004c6f00006e6700003a200000be
:101dac00427500006666000065720000206f00003e
:101dbc0076650000726600006c6f000077200000f2
:101dcc0064650000746500006374000065640000c5
:101ddc000d0a00000048000054540000502f000071
:101dec00312e000031200000353000003020000082
:101dfc00496e000074650000726e0000616c00009a
:101e0c00205300006572000076650000722000000f
:101e1c0045720000726f0000720d00000a43000052
:101e2c006f6e00006e65000063740000696f000047
:101e3c006e3a0000206300006c6f000073650000b8
:101e4c000d0a00000d0a00003530000030200000a3
:101e5c00496e000074650000726e0000616c000039
:101e6c0020530000657200007665000072200000af
:101e7c0045720000726f0000723a000020450000ad
:101e8c007870000065630000746500006420000039
:101e9c006461000074610000206e00006f7400002b
:101eac002070000072650000736500006e74000005
:101ebc000d0a00000048000054540000502f000090
:101ecc00312e0000312000003530000031200000a0
:101edc004e6f000074200000496d0000706c000013
:101eec00656d0000656e000074650000640d0000f7
:101efc000a4300006f6e00006e6500006374000002
:101f0c00696f00006e3a0000206300006c6f0000e7
:101f1c00736500000d0a00000d0a0000353000004a
:101f2c00312000004e6f000074200000496d00004d
:101f3c00706c0000656d0000656e0000746500003b
:101f4c00643a0000204f00006e6c00007920000005
:101f5c004745000054200000616e00006420000022
:101f6c00504f0000535400002073000075700000a7
:101f7c00706f000072740000656400000d0a0000b0
:101f8c000048000054540000502f0000312e000077
:101f9c003120000032300000302000004f4b000098
:101fac000d0a0000436f00006e6e000065630000b8
:101fbc00746900006f6e00003a200000636c000032
:101fcc006f730000650d00000a4300006f6e000087
:101fdc00746500006e7400002d54000079700000d0
:101fec00653a00002074000065780000742f000032
:101ffc00687400006d6c00000d0a00000d0a0000f2
:10200c003c680000746d00006c3e00003c620000f7
:10201c006f6400007920000073740000796c00007c
:10202c00653d0000226d00006172000067690000d0
:10203c006e3a000031300000307000007822000051
:10204c003e3c0000666f0000726d0000206d0000c9
:10205c0065740000686f0000643d0000706f000044
:10206c00737400002061000063740000696f00004d
:10207c006e3d0000222f0000757000006c6f000098
:10208c006164000022200000656e00006374000093
:10209c0079700000653d0000226d0000756c000039
:1020ac007469000070610000727400002f660000fb
:1020bc006f7200006d2d00006461000074610000ff
:1020cc00223e00003c6200003e4d000050460000e5
:1020dc0053200000496d000061670000652000007e
:1020ec00557000006c6f0000616400003c2f000014
:1020fc00623e00003c7000003e3c0000696e000037
:10210c007075000074200000747900007065000088
:10211c003d660000696c0000652000006e610000e7
:10212c006d6500003d69000020730000697a0000b5
:10213c00653d0000343000003e200000266e00009b
:10214c0062730000703b0000203c0000696e0000d0
:10215c007075000074200000747900007065000038
:10216c003d730000756200006d6900007420000072
:10217c00766100006c750000653d00002255000082
:10218c00706c00006f610000642200003e3c000097
:10219c002f6600006f7200006d3e00003c2f0000a7
:1021ac00626f0000647900003e3c00002f68000064
:1021bc00746d00006c3e0000004800005454000098
:1021cc00502f0000312e0000312000003230000072
:1021dc00302000004f4b00000d0a0000436f000040
:1021ec006e6e000065630000746900006f6e000085
:1021fc003a200000636c00006f730000650d000056
:10220c000a4300006f6e0000746500006e740000dd
:10221c002d54000079700000653a00002074000015
:10222c0065780000742f0000687400006d6c00006d
:10223c000d0a00000d0a00003c680000746d0000df
:10224c006c3e00003c6200006f64000079200000ce
:10225c0073740000796c0000653d0000226d000075
:10226c0061720000676900006e3a000031300000b6
:10227c0030700000782200003e3c0000623e0000fe
:10228c004d500000465300002055000070640000c3
:10229c00617400006520000053750000636300004a
:1022ac006573000073660000756c00003c2f000025
:1022bc00623e00003c7000003e3c000061200000cb
:1022cc0068720000656600003d2200002f220000ad
:1022dc003e53000069740000652000006d61000031
:1022ec00696e00002070000061670000653c000012
:1022fc002f6100003e3c00002f6200006f64000064
:10230c00793e00003c2f0000687400006d6c0000ea
:10231c003e00000048540000545000002f310000d3
:10232c002e31000020350000303000002049000024
:10233c006e740000657200006e6100006c2000007d
:10234c0053650000727600006572000020450000a5
:10235c00727200006f7200000d0a0000436f0000e3
:10236c006e6e000065630000746900006f6e000003
:10237c003a200000636c00006f730000650d0000d4
:10238c000a4300006f6e0000746500006e7400005c
:10239c002d54000079700000653a00002074000094
:1023ac0065780000742f0000687400006d6c0000ec
:1023bc000d0a00000d0a00003c680000746d00005e
:1023cc006c3e00003c6200006f640000792000004d
:1023dc0073740000796c0000653d0000226d0000f4
:1023ec0061720000676900006e3a00003130000035
:1023fc0030700000782200003e3c0000623e00007d
:10240c004d50000046530000204900006d61000053
:10241c0067650000204300006f72000072750000b9
:10242c0070740000206f00007220000057720000d2
:10243c006f6e00006720000056650000727300008c
:10244c00696f00006e3c00002f6200003e3c0000f3
:10245c00703e00003c6100002068000072650000c6
:10246c00663d0000222f0000757000006c6f0000ac
:10247c0061640000223e00005472000079200000cc
:10248c0061670000616900006e3f00003c2f000096
:10249c00613e00003c2f0000626f00006479000078
:1024ac003e3c00002f680000746d00006c3e000084
:1024bc000048000054540000502f0000312e000042
:1024cc00312000003330000032200000466f000045
:1024dc00756e0000640d00000a4300006f6e000072
:1024ec006e65000063740000696f00006e3a0000b6
:1024fc00206300006c6f0000736500000d0a000083
:10250c004c6f000063610000746900006f6e000086
:10251c003a2000000048000054540000502f0000e6
:10252c00312e000031200000343000003320000038
:10253c00466f000072620000696400006465000070
:10254c006e0d00000a4300006f6e00006e65000007
:10255c0063740000696f00006e3a00002063000095
:10256c006c6f0000736500000d0a00000d0a00007e
:10257c003430000033200000466f0000726200000f
:10258c0069640000646500006e3a0000205300008e
:10259c00534c00002052000065710000756900006a
:1025ac0072650000642000002d200000757300008f
:1025bc00652000004854000054500000530d0000ea
:1025cc000a000000e68c0000e68c00000b8d000079
:1025dc00698d0000ea8d0000848e0000f18e0000f1
:1025ec00618f0000c78f0000cd8c0000e3900000cd
:1025fc00909100005f92000091920000436f0000e8
:10260c006f6b0000696500003a0000004175000026
:10261c00746800006f720000697a00006174000039
:10262c00696f00006e3a0000004300006f6e0000fe
:10263c00746500006e7400002d4c0000656e000087
:10264c0067740000683a000000000000049300006a
:10265c000c9300001b930000474500005400000041
:10266c00504f00005354000000750000706c0000c7
:10267c006f61000064000000666f0000637500006d
:10268c0073650000723100002e680000746d00004c
:10269c00000d00000a0d00000a3300003034000069
:1026ac002052000065640000697200006563000040
:1026bc00743a000020000000436f00006e740000ac
:1026cc00656e0000742d00005479000070650000e8
:1026dc003a200000004300006f6e0000746500009b
:1026ec006e7400002d4500006e6300006f640000e6
:1026fc00696e0000673a0000206700007a690000ec
:10270c00700d00000a0000004361000063680000c7
:10271c00652d0000436f00006e740000726f0000a6
:10272c006c3a0000200000006e6f00002d6300006a
:10273c006163000068650000006d000061780000b6
:10274c002d610000676500003d0000003630000080
:10275c003000000053650000742d0000436f000032
:10276c006f6b0000696500003a200000000d00004e
:10277c000a0d00000a0000000d0a00000d0a0000fe
:10278c004d50000046530000020100000000000004
:10279c00000000000000000000000000000000002d
:1027ac00000000000000000000000000000000001d
:1027bc00000000000000000000000000000000000d
:1027cc0000000000000000000000000000000000fd
:1029ec0000000000000000004800000045520000fc
:1029fc003d36000020430000616e00006e6f000049
:102a0c0074200000457800006563000075740000b8
:102a1c0065200000436f00006d6d0000616e0000ca
:102a2c006420000057680000696c000065200000fd
:102a3c0044650000766900006365000020490000d1
:102a4c0073200000536c0000656500007069000085
:102a5c006e670000004d000000480000414c000073
:102a6c005445000044200000464f00004300000085
:102a7c00484100004c540000454400002052000026
:102a8c004f54000000450000523d00003120000072
:102a9c00556e0000616300006365000070740000f7
:102aac00616200006c650000205000006172000043
:102abc00616d00006574000065720000205200001a
:102acc006563000065690000766500006420000005
:102adc00496e0000204300006f6d00006d61000026
:102aec006e64000000530000544f00005050000072
:102afc004544000000450000523d0000322000001b
:102b0c005265000063650000697600006564000092
:102b1c00204300006f6d00006d6100006e640000ca
:102b2c002057000061730000205400006f6f0000fc
:102b3c00204c00006f6e0000670000005345000041
:102b4c0054000000455200003d37000020430000b7
:102b5c00616e00006e6f000074200000457800006c
:102b6c00656300007574000065200000436f000071
:102b7c006d6d0000616e000064200000576900005c
:102b8c00746800006f75000074200000546500002c
:102b9c006d70000020500000726f00006265000034
:102bac00204100007474000061630000686500003f
:102bbc0064000000455200003d3900002043000035
:102bcc00616e00006e6f00007420000050750000f4
:102bdc0073680000205300006574000074690000e5
:102bec006e670000732e0000204e0000656300002d
:102bfc0065730000736100007279000020530000bf
:102c0c0065740000746900006e670000732000009a
:102c1c0041720000652000004d69000073730000d4
:102c2c00696e000067000000535400004f52000012
:102c3c0045000000455200003d38000020430000d4
:102c4c006f6d00006d7500006e690000636100001f
:102c5c00746900006f6e000020700000726f00003d
:102c6c00626c0000656d0000207700006974000044
:102c7c0068200000576900002d4600006920000004
:102c8c00426f0000617200006400000044450000c7
:102c9c0046410000554c0000545300000052000007
:102cac00455300004554000000450000523d000013
:102cbc0035200000436100006e6e00006f74000050
:102ccc002045000078650000637500007465000005
:102cdc00204300006f6d00006d6100006e64000009
:102cec00202d000020440000657600006963000080
:102cfc006520000049730000204800006f6d000043
:102d0c00696e000067000000000000000000000079
:102d1c0000000000004300004f4e00004649000038
:102d2c00472000002d200000464f0000430000000b
:102d3c004e690000636b00006e6100006d65000061
:102d4c00203d0000200000004d61000078200000b4
:102d5c00506f000073200000203d00002000000098
:102d6c0044650000762000005479000070200000bb
:102d7c00203d000020000000544300006f6d000057
:102d8c00702000004f4e0000203d0000200000008d
:102d9c00546500006d700000436f0000204100007e
:102dac00203d000020000000546500006d70000004
:102dbc00436f000020420000203d00002000000076
:102dcc00546500006d700000436f0000204300004c
:102ddc00203d000020000000546500006d700000d4
:102dec00436f000020440000203d00002000000044
:102dfc00546500006d700000436f0000204500001a
:102e0c00203d00002000000054430000204d000035
:102e1c006f64000065200000203d000020000000d1
:102e2c00424c000043200000456e000020200000b2
:102e3c00203d000020000000424c00004320000018
:102e4c005374000070730000203d0000200000004f
:102e5c004c45000044200000427200007420000029
:102e6c00203d0000200000005443000040530000af
:102e7c007461000072740000203d0000200000000e
:102e8c00454e00004400000000000000000000005f
:102e9c0000000000004300004f4e000046490000b7
:102eac00472000002d200000524f0000540000006d
:102ebc00536b000079500000414f00006666000023
:102ecc00203d000020000000486f00006d650000f0
:102edc004053000074720000203d000020000000f0
:102eec0052650000766500007273000065200000da
:102efc00203d000020000000000000000000000049
:102f0c0000000000000000000000000000000000b5
:102f1c00535400004154000055530000202d000074
:102f2c00204600004f43000000540000656d000077
:102f3c007028000043290000202000003d200000e4
:102f4c00004e00005000000043750000727200003b
:102f5c00205000006f730000203d00002000000096
:102f6c005461000072670000205000006f73000075
:102f7c00203d000020000000497300004d6f000050
:102f8c00766900006e670000203d00002000000004
:102f9c0049730000486f00006d6900006e67000007
:102fac00203d00002000000049730000486f000025
:102fbc006d65000064200000203d00002000000032
:102fcc00546d000070500000726f000062650000cc
:102fdc00203d000020000000526500006d6f0000d5
:102fec0074650000494f0000203d000020000000e7
:102ffc00486e000064200000437400006c720000f6
:10300c00203d000020000000000000000000000037
:10301c0000000000535400004154000055530000c0
:10302c00202d0000205200004f5400000030000002
:10303c002e3000002e3100000000000000000000c7
:10304c00000000000000000000000000004800002c
:10305c0055420000204900004e4600004f00000081
:10306c0048750000622000004656000065720000a2
:10307c00203d000020000000536c0000656500003e
:10308c00706900006e670000203d00002000000009
:10309c005769000072650000642000004950000070
:1030ac00203d000020000000574600002041000099
:1030bc007463000068640000203d000020000000e4
:1030cc0057460000204300006f6e00006e20000089
:1030dc00203d000020000000574600002046000064
:1030ec005665000072200000203d0000200000000a
:1030fc005746000020460000562000004f4b0000b1
:10310c00203d000020000000574600002053000026
:10311c005349000044200000203d00002000000026
:10312c0057460000204900005020000020200000dd
:10313c00203d0000200000005746000020530000f6
:10314c00656300004d640000203d0000200000007d
:10315c005746000020530000656300004b790000c7
:10316c00203d0000200000005746000020570000c2
:10317c00657000004b490000203d0000200000005d
:10318c0044490000414700002e2000005245000039
:10319c00504f000052540000002e000000000000b0
:1031ac00707200006f740000656300007400000012
:1031bc00736e00006d70000000610000646d000013
:1031cc00696e0000006d000069630000726f000002
:1031dc00636800006970000000000000000000003f
:1031ec0000000000000000000000000000000000d3
:1031fc0000000000000000000000000000000000c3
:10320c0000000000000000000000000000000000b2
:10321c0000000000000000000000000000000000a2
:10322c000000000000000000000000000000000092
:10323c000000000000000000000000000000000082
:10324c000000000000000000000000000000000072
:10325c000000000000000000000000000000000062
:10326c000000000000000000000000000000000052
:10327c000000000000000000000000000000000042
:10328c000000000000000000000000000000000032
:10329c000000000000000000000000000000000022
:1032ac0000730000656e0000644300006d64000054
:1032bc00006600006f63000075730000657200000b
:1032cc00312e0000687400006d0000007072000068
:1032dc006f74000065630000742f0000636f0000c2
:1032ec006e660000696700002e680000746d0000b7
:1032fc000069000070000000677700000073000098
:10330c0075620000006400006e7300003100000064
:10331c00646e000073320000006d000061630000f9
:10332c00006800006f730000740000006468000007
:10333c0063700000002f0000707200006f740000ba
:10334c0065630000742f000072650000626f00005e
:10335c006f7400002e680000746d00003f000000c8
:10336c002f700000726f0000746500006374000021
:10337c002f6300006f6e000066690000672e00006e
:10338c00687400006d0000004170000072200000a5
:10339c0031340000203200003031000032200000b7
:1033ac00313500003a310000393a00003533000065
:1033bc0000760000352e000033360000006e000051
:1033cc00616d0000650000006e6f0000742000004d
:1033dc0073650000740000003c6200003e55000064
:1033ec00706c00006f610000642000006120000020
:1033fc00466900006c6500003c2f0000623e000036
:10340c000063000068650000636b000065640000e9
:10341c0000660000616900006c0000005468000048
:10342c0065200000447900006e6100006d690000a9
:10343c0063200000444e000053200000436c000049
:10344c00696500006e7400002069000073200000a4
:10345c006e6f000074200000656e00006162000059
:10346c006c650000642e0000006e00006f6e0000a2
:10347c0065000000626c00006f6300006b000000d0
:10348c000000000000000000000000000000000030
:10349c0000000000000000000000000031300000bf
:1034ac0032000000000000000000000000000000de
:1034bc000000000000000000000000000000000000
:1034cc0000000000000000000000000000000000f0
:1034dc0000000000000000000000000000000000e0
:1034ec0000000000000000000000000000000000d0
:1034fc0000000000000000000000000000000000c0
:10350c0000000000000000000000000000000000af
:10351c00000000000000000000000000000000009f
:10352c00000000000000000000000000000000008f
:10353c00000000000000000000000000000000007f
:10354c00000000000000000000000000000000006f
:10355c00000000000000000000000000000000005f
:10356c00000000000000000000000000000000004f
:10357c00000000000000000000000000000000003f
:10358c00000000000000000000000000000000002f
:10359c00000000000000000000000000000000001f
:1035ac00000000000000000000000000000000000f
:1035bc0000000000000000000000000000000000ff
:1035cc0000000000000000000000000000000000ef
:1035dc0000000000000000000000000000000000df
:1035ec0000000000000000000000000000000000cf
:1035fc0000000000000000000000000000000000bf
:10360c0000000000000000000000000000000000ae
:10361c00000000000000000000000000000000009e
:10362c00000000000000000000000000000000008e
:10363c0000450000523d000033200000556e000094
:10364c006b6e00006f7700006e200000436f00006f
:10365c006d6d0000616e000064200000526500007a
:10366c006365000069760000656400000045000099
:10367c00523d0000322000005265000063650000de
:10368c006976000065640000204300006f6d000047
:10369c006d6100006e640000205700006173000033
:1036ac00205400006f6f0000204c00006f6e000073
:1036bc006700000021000000484500004c4c000051
:1036cc004f000000484100004c540000004800002e
:1036dc004f4d000045000000434500004e540000d3
:1036ec0045520000004d000031490000004d000023
:1036fc00314f0000004d00004f520000004d000003
:10370c0049520000004d00004100000045520000ed
:10371c004d000000534c00004545000050000000d7
:10372c00574100004b450000004700004554000085
:10373c005354000041540000555300000047000052
:10374c0045540000434f00004e460000494700001e
:10375c000053000043440000540000005343000099
:10376c005443000000530000435400004d0000007f
:10377c005343000054450000005300004354000024
:10378c0053000000534300004e4e00000053000055
:10379c004342000053000000534300004245000028
:1037ac0000530000434c0000420000005343000053
:1037bc0043500000004700004554000048550000ed
:1037cc00424900004e4600004f00000052450000e8
:1037dc0053450000540000005357000053530000a1
:1037ec0000530000575300004d00000053570000d9
:1037fc00534b0000005300005757000049000000d5
:10380c005357000050530000005700004946000079
:10381c004952000045530000455400000057000079
:10382c00494600004944000045460000415500004f
:10383c004c54000053000000444900004147000074
:10384c00000000000000000000000000000000006c
:10385c00000000000000000000000000000000005c
:10386c00000000000000000000000000000000004c
:10387c00000000000000000000000000000000003c
:10388c00000000000000000000000000000000002c
:10389c00000000000000000000000000000000001c
:1038ac00000000000000000000000000000000000c
:1038bc0000000000000000000000000000000000fc
:1038cc0000000000000000000000000000000000ec
:1038dc0000000000000000000000000000000000dc
:1038ec0000000000000000000000000000000000cc
:1038fc0000000000000000000000000000000000bc
:10390c000000000000000000000000004552000014
:10391c003d330000205500006e6b00006e6f000000
:10392c00776e0000204300006f6d00006d61000099
:10393c006e640000205200006563000065690000a1
:10394c007665000064000000455200003d32000026
:10395c002052000065630000656900007665000078
:10396c0064200000436f00006d6d0000616e00006c
:10397c00642000005761000073200000546f0000a9
:10398c006f2000004c6f00006e67000000210000eb
:10399c00000000000000000000000000000000001b
:1039ac00000000000000000000000000000000000b
:1039bc0000000000000000000000000000000000fb
:1039cc0000000000000000000000000000000000eb
:1039dc0000000000000000000000000000000000db
:1039ec0000000000000000000000000000000000cb
:1039fc0000000000000000000000000000000000bb
:103a0c0000000000000000000000000000000000aa
:103a1c00000000000000000000000000000000009a
:103a2c00000000000000000000000000000000008a
:103a3c00000000000000000000000000000000007a
:103a4c00000000000000000000000000000000006a
:103a5c0000000000000000000000000045520000c3
:103a6c003d330000205500006e6b00006e6f0000af
:103a7c00776e0000204300006f6d00006d61000048
:103a8c006e64000020520000656300006569000050
:103a9c007665000064000000455200003d320000d5
:103aac002052000065630000656900007665000027
:103abc0064200000436f00006d6d0000616e00001b
:103acc00642000005761000073200000546f000058
:103adc006f2000004c6f00006e670000002100009a
:103aec0000000000455200003d330000205500004e
:103afc006e6b00006e6f0000776e000020430000bc
:103b0c006f6d00006d6100006e64000020520000bb
:103b1c0065630000656900007665000064000000c4
:103b2c00455200003d320000205200006563000049
:103b3c00656900007665000064200000436f00009a
:103b4c006d6d0000616e0000642000005761000084
:103b5c0073200000546f00006f2000004c6f0000b9
:103b6c006e67000000210000000000000100000052
:103b7c00580200009600000008000000c800000079
:103b8c002c01000008000000c80000002c010000ff
:103b9c0008000000c80000002c0100000800000014
:103bac00c80000002c01000009000000c800000043
:103bbc002c0100000d0a0000444800004350000096
:103bcc002f5000006f770000657200002065000028
:103bdc00766500006e740000206f000063630000c7
:103bec0075720000726500006400000000040000a3
:103bfc00a300000000000000464f000043550000e9
:103c0c00534c0000594e0000580000004d5000006d
:0c3c1c0046530000020100000000000000
:020000040000fa
:103c28000200fa00004f780072d4bf009e4f500087
:103c38001b00320072d4bf00e24f40000a0032007d
:103c480072d4bf000080fb007e00b90080007800bd
:103c580000e620000080400081f720000e000900e7
:103c680031187800e001b1001e40780072f4b70006
:103c7800e0cfb3009e4f1000090032001e80fb0009
:103c88007e00b9008000780000e620000080400037
:103c980081f720000e000900b0187800e001b1009b
:103ca8000080fa00000006000000fa0031472100f9
:103cb8009140780072d4bf0080cf500024003200b9
:103cc80073d4bf00e24f40001600320040f12000dc
:103cd8000001780073d4bf000080fb007e00b900ab
:103ce800fc00400000e62000008040009042780080
:103cf80073d4bf000080fb007e00b900800078000c
:103d080000e62000008040009000780080fd2f0031
:103d1800008040008402200013c0b3008540780072
:103d28004110070072d4bf0073f4b70043f92000b4
:103d380093417800c17b800080fd2f000081400006
:103d480040f120008402200011c0b30036100700a3
:103d58000080fa00000006000c00fa0040f920007c
:103d6800000f7800a0a380000000e00007003a00e0
:103d78008845070080007800f07f20008080600080
:103d88000040200000804000a0a38800c0f320006d
:103d9800c20320008000eb005df607000040eb0046
:103da800204f98000040eb00304f98004a00370041
:103db8003e4890009aff07003e4890000080fb00b4
:103dc8006600b90080007800c0db29000080400050
:103dd80090409000214798003e4890000080fb00ea
:103de8006600b9008080e800c0db29000080400040
:103df80090007800410798003e4890000080fb0042
:103e08006600b900e4004000c0db290000804000e3
:103e180090007800310798002e4090000080fb0049
:103e28000000e000010032002a0037001e00780080
:103e380020079800ce0090003e00900000804000cf
:103e48001e004000a1022000010f400000ed2100eb
:103e58009e0f1000fdff3e002e40900094efb7002b
:103e68002e0090008002b000c07b8800c17b8000db
:103e78004e009000008040000000e800d07b8800e1
:103e8800d17b80003e00900000804000e07b8800ed
:103e9800d0002000707c8800906fa90082ff070086
:103ea8003e4890000080fb006600b9008000780062
:103eb800c0db290000804000104078003befb700cd
:103ec800630a07003e4890000040e800304f980021
:103ed80001003700ffff37003e489000e54f5000d3
:103ee800b3ff36000080fa00000006001200fa0056
:103ef8001007980021079800624798004307980028
:103f0800244f98000040eb00004f780093003700e2
:103f18001e40780042ff0700707c8000ed0f5000c3
:103f28008d003a0060ff0700b1f32000914078004f
:103f38002e48900080cf500087003a008021200052
:103f4800c07988006e4090000004e00008003a0044
:103f58004e00900020798800906fa8004000200053
:103f6800707c8800ce009000917c88007700370034
:103f7800a1a38000f03f2000808f5000040036008d
:103f8800a1a3800080382100808f500002003600f5
:103f980000402000a0a38800a0a38000207988000a
:103fa8000000e800a0a388004e0090001079880067
:103fb8009d6f0700307c8800417c8800908fa800a6
:103fc8006e4090000080fb00000f98008e08900063
:103fd800e38f5000220032000e089000e30f5000db
:103fe80004003c008e089000e18f50005700350017
:103ff800040037000e089000e40f50002f00320034
:10400800520037001e009000ae00900050798800e2
:10401800617988008040eb00614f98006e40900005
:10402800e24f500002003a0010c0b300604f980001
:10403800ee4890000180fb00610060004201dd0055
:10404800b1798000b0ff2f0000806000020070008e
:10405800b07988000000eb00707c88003b003700d6
:104068000e80e800900090000e80e80010007800b4
:10407800808040004e0090008080400020798000c1
:1040880000806800907c88001e009000ae009000c0
:1040980050798800617988000040eb003aefb7005a
:1040a8008009200001002000a0788800b1788800ed
:1040b80020002000707c8800240037001e0090003b
:1040c800ae00900080007800214090000081fb0045
:1040d800314090000080fb004800dd0002007000c5
:1040e800000178001e009000ae0090009080fb0058
:1040f800104090000080fb004800dd0001007000c7
:10410800800041004e0090008080400020798000af
:1041180000806800907c88001e009000ae0090002f
:1041280080007800a0f220000900090031587800ca
:10413800a000b100a100b10050002000707c8800f0
:1041480011c0b30020c0b300840607001e80fb0026
:1041580060079800060037001e4fe80051c0b30002
:104168009ecf10006aff3600e00f2000600798001d
:104178006e0090000080fa00000006000400fa00bb
:10418800004f78001e407800a5fe0700807c800064
:1041980001002100010060000000e000040032007e
:1041a800918fa90010002000100798000200370026
:1041b8000000eb00100798001e0090000080fa0035
:1041c800000006000400fa00004f78001e40780046
:1041d80093fe0700707c80008000eb0011079800b8
:1041e800e70f500002003a00100020001007980066
:1041f8001e0090000080fa00000006000400fa008b
:10420800004f78001e40780085fe0700107c800073
:10421800207c8800707c8000100798001e009000a9
:10422800e50f50001e0032001e009000e50f500000
:104238000a003e001e009000e10f500015003200f9
:104248001e009000e10f5000150039001e0090007c
:10425800e30f500031003e00110037001e009000af
:10426800eb0f50001d0032001e009000eb0f5000b5
:1042780004003e001e009000e70f500027003e009b
:10428800090037001e009000ee0f50002000320099
:10429800220037006a4b07006d090700230037002a
:1042a8006b0907002100370011c0b30010c1b3002b
:1042b8002a060700307980000000e0000400320080
:1042c800f17b800000798000808f5000f6ff3a0073
:1042d80080002000707c88001400370011c0b300f3
:1042e80010c1b3001d060700307980000000e0000f
:1042f80004003200f17b800000798000808f50003c
:10430800f6ff3a00c0002000707c880007003700e4
:10431800d0002000707c8800040037008040eb004b
:1043280040c1b3000d060700490907000080fa00e4
:10433800000006000200fa00004f78001e407800d6
:1043480037fe0700906fa9001e407800abff0700fa
:104358000080fa00000006000200fa00004f780012
:104368001e4078002efe07004ffe070040e52000a3
:10437800a1f2200009000900315878001079800066
:10438800f072880040e520000080fa000000060076
:104398000200fa00004f78001e40780020fe070057
:1043a80041fe0700f17b800000798000808f50007b
:1043b8000300320011c0b30000c1b300e7050700d5
:1043c8000080fa00000006000600fa002047980066
:1043d8002e40900012fe0700707c8000004f78008d
:1043e80070c0b3009e4f100006003200b0c0b3008a
:1043f8009e4f1000030032000000eb0020079800d9
:1044080013003700f17b8000007c8000808f500013
:104418000a003900d17b8000c07b800000815000f9
:10442800017c8000f07b800000805000000041008b
:104438000000e9002007980005003700007c800094
:10444800f17b8000010050000000e900200798007f
:104458002e0090000080fa00000006000600fa0016
:1044680020479800314798002e409000ecfd070047
:104478002e409000d4ff0700000f78001e00e000d7
:1044880003003a000000eb002007980035003700d1
:10449800100020009e0f100002003a002e409000ed
:1044a800bbff0700807c8000011020000100600035
:1044b8000000e00009003a00d17b8000c07b80004a
:1044c800008050000000d1009e0f5000030039000a
:1044d8002e409000aeff0700910fa8006300470030
:1044e8000001780041f9200091407800f07b8000bd
:1044f8001400200013c0b3004b0e0700f07b8000af
:104508000000e800f07b8800f17b8000d07b800011
:10451800808f500002003900c07b8000f07b88004b
:10452800100020009e0f100003003a002e4090005b
:1045380097ff070009003700807c800001022000f7
:10454800010060000000e00004003a0090afa800fd
:104558003b6e070078004000507c88001000200067
:10456800200798002e0090000080fa000000060046
:104578000e00fa006047980041079800520798001b
:104588000000eb00000f78006e409000a4fd0700cb
:104598006e4090008cff0700100798001e009000e6
:1045a8000000e00005003a006e40900078ff070028
:1045b8000000eb0060079800500037001e009000d4
:1045c800200798009e0090005e009000808f5000a9
:1045d800020036005e00900020079800807c800072
:1045e80001102000010060000000e0000a003a000d
:1045f800d17b8000c07b8000008050008000d1000b
:104608001e009000808f5000030039006e4090001b
:104618005fff0700910fa800f17b80002e0090003b
:1046280080804000d07b8000808f500014003900cb
:10463800d17b8000f07b8000008f50004e009000fe
:104648000001780041f9200091407800f07b80005b
:104658001e02780013c0b300f30d07009e00780017
:104668004e00900001004000400798002e00900086
:104678001e00500020079800c07b8000f07b880057
:104688004e0090000001780041f920009140780028
:10469800f07b80002e02900013c0b300e20d0700eb
:1046a800f17b80002e00900000804000f07b8800a5
:1046b8009e0090005e009000808f500003003e0036
:1046c8006e40900032ff070009003700807c8000b0
:1046d80001022000010060000000e00004003a0030
:1046e80090afa800d66d070078004000507c880085
:1046f8002e0090001e004000600798006e00900099
:104708000080fa00000006000400fa00004f78005c
:10471800110798001e0090000af3070000017800b6
:104728009e0090001e40780091ff070080007800ee
:104738001e009000008040000080fa000000060083
:104748000600fa00404798004e40900034fd0700ec
:10475800d17b8000c07b800000805000000fe90002
:104768004e40900018ff0700100798001e009000a8
:104778001e0010000080fa00000006000200fa0087
:10478800004f78001e4078000b0007000000e00092
:10479800070032001e40780021fd0700107c8000d1
:1047a800207c880011c0b30000c1b300eb040700ef
:1047b8000080fa00000006000400fa00004f7800ac
:1047c8001e40780016fd0700117c8000207c8000c8
:1047d800808f500005003900117c8000207c80000b
:1047e800808050001107980009003700e17b8000a5
:1047f800207c800000815000117c8000d07b8000ec
:1048080000805000000041000000e80010079800f8
:104818001e0090000080fa00000006000800fa0060
:1048280020479800210798002e409000e2ff0700db
:10483800000f78001e00e00003003a000000eb00c3
:1048480030079800260037002e409000f4fc07003f
:104858002e0090000000e0000800320041f920001e
:1048680091407800227c80002e00900014002000e7
:104878008141780011c0b3006b0d0700207c8000d7
:104888000000e800207c8800217c8000e07b80001c
:10489800808f500002003600d07b8000207c88008a
:1048a800100020009e0f100002003a00914fa8004f
:1048b80009003700807c80000102200001006000b0
:1048c8000000e00004003a0090afa8005c6d07000b
:1048d800a007b000507c8800100020003007980026
:1048e8003e0090000080fa00000006000c00fa006c
:1048f8004047980031079800420798000000eb00f5
:10490800000f78004e409000abff0700100798009a
:104918001e0090000000e00003003a000000eb00d9
:10492800500798004b0037004e409000bcfc070031
:10493800ce0090001e009000808f500002003600cc
:104948001e00900040079800217c80004e009000d7
:1049580080804000e07b8000808f50001800360087
:10496800e17b8000207c800000805000000fe80080
:104978003e0090000000e0000c00320041f92000e9
:1049880091407800227c80003e0090001e02780052
:104998008141780011c0b300230d07009e00780004
:1049a8003e00900001004000300798004e00900043
:1049b8001e00500040079800d07b8000207c8800b3
:1049c8003e0090000000e0000800320041f920009d
:1049d80091407800227c80003e0090004e029000ba
:1049e8008141780011c0b3000f0d0700217c8000c1
:1049f8004e00900000804000207c88004e0090000f
:104a08001e004000400798009e0090004e00900055
:104a1800808050004e009000808f500002003e00c1
:104a2800914fa80009003700807c80000102200017
:104a3800010060000000e00004003a0090afa80008
:104a4800ff6c0700a007b000507c88004e00900063
:104a5800500798005e0090000080fa0000000600f1
:104a68000600fa00404798004e4090006cfc070092
:104a7800e17b8000d07b8000008f50004e4090008a
:104a88004dff0700100798001e0090001e00100040
:104a98000080fa00000006001000fa006047980045
:104aa8004107980052079800630798005e0090003d
:104ab8000000e00003003a000000eb0070079800d7
:104ac800450037006e40900055fc07006e4090008e
:104ad80039ff070010079800ee0090005e00900074
:104ae800808040001e009000808f50000400360037
:104af8001e009000ee009000010050005007980042
:104b0800217c80006e009000008040002007980003
:104b1800e17b80002e009000808f5000070031005c
:104b2800d17b8000e07b8000808050002e009000c8
:104b3800008040000000e90020079800e17b800029
:104b48002e00900000805000000fe8005e009000ea
:104b58009e0f50000a003e0094cfbf00ce00900088
:104b6800810278005e029000804178002e0190005a
:104b780011c0b30005007800ab0c07001400370023
:104b880041f92000914078004e0090001e02780004
:104b9800814178002e01900011c0b300a20c0700db
:104ba8005e0090009e00500042f9200012417800fb
:104bb800d57b80004e0090001e0040000102780066
:104bc800824178000501780011c0b300960c0700f7
:104bd8005e009000700798007e0090000080fa0048
:104be800000006000600fa002047980021079800f8
:104bf800ae019000120020008e0078002e40900038
:104c0800a5ff07001e4078000080fb000080fa0026
:104c1800000006004000fa0020779800211f980045
:104c2800321f9800431f9800541f9800651f980072
:104c38003e1890000000e00003003a000000eb007e
:104c4800701f9800320137002e709000f4fb0700a7
:104c58002e709000d8fe0700800078004e18900053
:104c68000080500070079800fe0090003e189000e9
:104c7800808f5000030031008080eb00711f980086
:104c8800230137005e1890000000e00006003200a3
:104c9800fe0090005e189000808f500002003600e1
:104ca8005e18900070079800217c80004e189000d4
:104cb8000080400050079800e17b80005e00900073
:104cc800808f500007003100d17b8000e07b80009e
:104cd800808050005e009000008040000000e900e5
:104ce80050079800de009000010f9800e17b8000db
:104cf8005e009000008050000000e8006007980007
:104d08004e18900050079800be1890004107980070
:104d18002e189000300798002e18900090407800c8
:104d2800314798002e1890000000e800201f9800d6
:104d38000000eb00000f78006e1890000000e00003
:104d48000c003200be40900000c6b30080cf500077
:104d580008003600be409000a0c7b30080cf5000c6
:104d680004003e003e40900001ceb30001404000e8
:104d78003047980000c2b300204798002e409000aa
:104d88008080fb006e009000808f5000020036008b
:104d98006e009000204798002e4090008080fb0015
:104da8007e009000808f5000020036007e00900048
:104db800204798002e4090008080fb0042f9200098
:104dc80012417800720047000102780082417800a1
:104dd8000e09900011c0b300130c07002e4090007c
:104de8008080fb000e08900001004000000f980032
:104df8002e4090008080fb006e0090000100500063
:104e0800600798006e0090000000e00004003a007f
:104e1800d07b8000000f98000080eb0060079800ae
:104e28006e1890000000e0006f0032000040eb00b8
:104e380040479800670037004e4090008080fb0094
:104e480072004700008040009040780000c6b30020
:104e580080cf5000160036004e4090008080fb0046
:104e6800720047000080400090407800a0c7b3005f
:104e780080cf50000e003e004e4090000081fb00a5
:104e88004e4090008080fb00720047000080400088
:104e9800104078008040780000ceb30000c0400089
:104ea8008040780072004700000041000148780007
:104eb8004e4090008080fb00720047000080400058
:104ec800904078003e40900080cf500024003a0087
:104ed8003e1890000000e900301f98003e1890002e
:104ee8000000e00009003a00de0090004e0090004b
:104ef800808050004e4090000080fb000080400001
:104f08000000e800701f9800810037002e189000fc
:104f180090407800314798002e1890000000e80073
:104f2800201f980010002000000f7800be4090005d
:104f380000c6b30080cf500023003600be4090006a
:104f4800a0c7b30080cf50001f003e003e40900035
:104f580001ceb30001404000304798001a003700e6
:104f68004e009000301f98001e00e000160032002e
:104f7800be009000211f98002e18900090407800e5
:104f8800314798002e1890000000e800201f980074
:104f9800be40900000c6b30080cf50000800360025
:104fa800be409000a0c7b30080cf500004003e0070
:104fb8003e40900001ceb3000140400030479800c9
:104fc8000000eb00000f78004e4090000040e80021
:104fd80040479800ce4090002e40900080cf50006f
:104fe80095ff3900380037000040eb004047980033
:104ff800310037004e4090008080fb00720047006f
:1050080000804000904078003e40900080cf5000e3
:1050180018003a003e1890000000e900301f980080
:105028003e1890000000e00009003a00de00900001
:105038004e009000808050004e4090000080fb00a1
:10504800008040000000e800701f98003000370022
:105058002e18900090407800314798002e18900044
:105068000000e800201f980010002000000f7800c2
:105078000e0037004e009000301f98001e00e00020
:105088000a003200be009000211f98002e189000e0
:1050980090407800314798002e1890000000e800f2
:1050a800201f98000000eb00000f78004e40900091
:1050b8000040e80040479800ce4090002e40900005
:1050c80080cf5000cbff39002e4090008080fb003d
:1050d8007e0090000100500070079800fe009000cc
:1050e8003e189000808f5000030031000080eb00d4
:1050f800701f9800060037002e4090008080fb004b
:105108005e009000010040005007980019ff37002a
:105118007e1890000080fa00000006000800fa00df
:10512800004f78001147980012079800230798004d
:10513800340798008e00e800be0290002e0290000e
:105148009e019000120020001e407800b1fe07006a
:105158000080fa00000006001400fa00881f78009a
:105168000040eb00004f9800ec0137000e4890001b
:10517800abfa07000040eb00204798000000eb0066
:10518800300798000000eb0020079800817c800021
:1051980000202000008060000000e00005003a00c8
:1051a800807c800001402000010060000000e000d9
:1051b8000a003200d72607000000e000070032008e
:1051c80000c1b30020479800807c80004a00de00c0
:1051d800614060000080fb0030079800807c800000
:1051e80001022000010060000000e000070032001a
:1051f800587c8000126b0700000054000000e0009b
:1052080002003c0000c1b30020479800807c800069
:1052180001042000010060000000e00007003200e7
:10522800687c8000066b0700000054000000e00066
:1052380002003c0000c1b30020479800707c800049
:10524800eb0f500009003a00687c8000fc6a0700f8
:10525800000054000000e00004003c0010c1b3004e
:1052680020479800c0002000707c8800707c800077
:10527800e40f500056003a000000eb00000f7800e1
:10528800500037001e0078007400b900f00040009c
:10529800c0f3200000804000100078000000e0000b
:1052a8004b0032001e0078007400b900f000400086
:1052b800c0f320000080400090007800907c8000bf
:1052c800808f50003e003a0077fa07001e007800f1
:1052d8007400b90080007800c0f32000008040000e
:1052e800a1f2200009000900b0587800a000b10020
:1052f8001e0078007400b900ea004000c0f32000e6
:105308000080400010007800107988001e007800a6
:105318007400b900ec004000c0f320000080400099
:105328001000be0061004000e0804800e07888007e
:10533800f178880061798000507980008080400091
:10534800107980008080400020798000008068000b
:10535800907c880020c1b30020479800600020009e
:10536800707c8800220020001e0051007400b900e3
:10537800000178001e0078007400b90080007800f1
:1053880000f5200000804000800278001e007800b0
:105398007400b90080007800c0f32000008040004d
:1053a8000202780013c0b3000501780011c0b300f1
:1053b8009d0a07000000eb00a07b8800040037006e
:1053c8001e0fe800230020009e8f1100adff36005d
:1053d8002e4090000004e0000a0032000040eb007c
:1053e800604f98003e0090000000e00002003a0084
:1053f80011c0b300614f9800ee4890002e40900015
:10540800d6010700807c8000700060000000e0008a
:105418002a003a00707c8000e70f50003c013a00f7
:10542800816a07000001be00307c8000417c80005a
:105438000000510081805900e00f5000e08f5800b3
:1054480033013500807c800067006000e60f500063
:105458000e003a00807c80004300de00614060005e
:10546800204798000e48900064fb07000e48900003
:1054780062fb07002e4090000004e00024013a007f
:10548800e0002000707c88002101370006fa070040
:1054980021c0b30000c1b300b0010700626a070071
:1054a80042782d00730120000000410081804900ee
:1054b800307c8800417c8800150137005a6a070053
:1054c8000001be00307c8000417c8000000051005b
:1054d80081805900e00f5000e08f58000c01350022
:1054e800f1f90700707c80006101b800020f980094
:1054f800130f9800c0002000010020000e09900042
:105508009e099000800f5100818f5900ce003e0007
:105518000e0890009e089000006001000c00370003
:105528001e003700440037004a003700c600370025
:105538006b003700780037008b0037009700370082
:10554800a3003700a700370087003700b2003700f4
:10555800ad4607000000e000bb003200100020004c
:10556800707c8800b0798000640060000000e00072
:1055780005003200507980006179800011c0b300c5
:10558800c1460700b000370050798000617980007b
:1055980011c0b300bc460700ab0037006a004700e3
:1055a800d04607000000e000a7003200a44607002c
:1055b8000000e000150032005e009000ee00900050
:1055c800507988006179880020002000707c88006c
:1055d80061798000507980008080400010798000d7
:1055e800808040002079800000806800907c8800de
:1055f8000040eb003aefb7008009200001002000ce
:10560800a0788800b17888008f003700066a070004
:105618000001be0040782d0071012000020040000a
:1056280083804800307c8800417c88000000eb00c3
:10563800707c880084003700016a0700507c88006d
:10564800a0f22000ac57070030002000707c8800d2
:105658007d003700e1f22000a0f220000c5807007e
:105668000000e00017003a00f569070080007800a4
:10567800507c800000815000a0788000b1788000c4
:10568800800f5100700036003acfbf00e54f500040
:1056980009003e003acfbf000040e8003aefb700eb
:1056a800a0788000b1788000000040008180480028
:1056b800a0788800b178880020002000707c8800dd
:1056c8006100370020c0b300204798000000eb00bd
:1056d8003007980050002000707c88005a0037007e
:1056e80020c0b30020479800100020003007980021
:1056f8003acfbf00e34f50005300360040c0b3001c
:105708003aefb700005a220061022000a078880012
:10571800b17888004c0037003acfbf00e14f500005
:1057280005003e0020c1b30020479800100020006b
:105738003007980044003700807c800068006000d3
:105748000000e0000500320040c1b3002047980087
:1057580010002000200798003b00370020c0b3004d
:1057680020479800380037003acfbf00e44f500078
:1057780005003e0000c1b30020479800100020003b
:10578800300798003000370080002000707c8800c7
:1057980010c1b300204798002b0037003acfbf0054
:1057a800e44f500005003e0010c1b30020479800a8
:1057b80010002000300798002300370040c1b300d4
:1057c8002047980010002000200798001e0037008e
:1057d80040c1b3002047980010002000200798001f
:1057e800190037003acfbf00e44f500005003e00d3
:1057f80000c1b3002047980010002000300798002f
:105808001100370040c1b300204798001000200065
:10581800200798000c0037003acfbf00e44f500033
:1058280005003e0010c1b30020479800100020007a
:10583800300798000400370040c1b30020479800a3
:1058480010002000200798002e4090000004e0007f
:105858002b0032003e0090000000e00025003200de
:105868003acfbf000040e8003aefb700a0788000c8
:10587800b17880000000400081804800a07888004e
:10588800b178880001798000007c8000008f50008a
:1058980001798000007c8000808f50000400310076
:1058a800d07b8000c17b8000010050001e0f4000ab
:1058b800c2788000d37880001e00780001002000a4
:1058c8000000510081805900c0788800d178880094
:1058d800307980001e00400030798800007c80000c
:1058e800007988008040eb002e4090009b00070064
:1058f8000300370011c0b3002e4090009700070046
:105908002e0090000000e00001003200d0030700e4
:105918000e4890000040e800004f98000e489000a4
:10592800e54f500011fe36000000eb00000f780034
:105938002c0037001e0078007400b900f000400009
:10594800c0f3200000804000100078000000e00054
:10595800270032003a690700000178001e0078002d
:105968007400b900f2004000c0f32000008040003d
:10597800100078008000510070722000808f500065
:1059880017003600210020001e8050007400b90066
:10599800000178001e0078007400b90080007800cb
:1059a80000f5200000804000800278001e0078008a
:1059b8007400b90080007800c0f320000080400027
:1059c8000202780013c0b3000501780011c0b300cb
:1059d800150907000000eb00a07b88001e0fe900f6
:1059e8001e0fe800220020009e0f1100d1ff360094
:1059f8004f0478000080fa00000006002e00fa002c
:105a0800301798004117980052179800be10900060
:105a18001182fb00114090000080fb004800dd006f
:105a28000400700000017800214090000082fb0013
:105a3800314090000080fb004800dd000400700049
:105a480080017800760047000288be004e10900062
:105a58001000be007601470020019800310198002f
:105a6800f60047000040eb0080489800f600470029
:105a780060c0b3009048980076004700de109000a0
:105a88005100980076004700500090000841070038
:105a980080007800760047005100980076004700a3
:105aa800c10020003e4107000080ea00101798005e
:105ab8005e1090009a260700201798009e1090000c
:105ac8002e109000808f5000040032009d240700a3
:105ad80010002000601798001d0037000000eb0040
:105ae800da6707000e80e80041012000e42707007c
:105af8000e80e800260307000e80e8006000900092
:105b08004400de006f4060004200dd00744f50002a
:105b18009e80fb005e109000010050007400500051
:105b2800501798000e80e800be109000ff01070093
:105b38000000e000030032000e80e800de10900054
:105b4800d40307007f240700110020006117980084
:105b58006e1090000080fa00000006002a00fa008b
:105b6800006f9800116f98004ff807000e689000ba
:105b78000080fb00610060000004e00005003200c6
:105b8800916fa8000e689000e1cfb300014060005b
:105b9800006f980090afa90090cfa90090efa900de
:105ba800912fa900914fa900910fa900592407002e
:105bb8000000e000fdff32000e6890000080fb004e
:105bc800660060000000e000030032000000eb0007
:105bd800000f78007d003700f17b8000007980009d
:105be800808f500003003a000000eb00000f78009f
:105bf80068003700f17b800000798000808f5000ba
:105c080019003600f07b800001798000010f5000f8
:105c1800307980009e0f50000200310030798000fa
:105c2800000f7800c07980009e0f500003003100fb
:105c3800c1798000010f7800914fa80094cfbf0070
:105c4800027980001e027800804178008040eb00d5
:105c5800909d200074080700007980001e00400015
:105c6800007988004b003700d17b800000798000e4
:105c7800808050007c004700510098007c0047005d
:105c8800d0009000f07b800080804000c07b8000c6
